{
	"contracts/src/projects/lottery.sol": {
		"Lottery": {
			"abi": [
				{
					"inputs": [],
					"stateMutability": "nonpayable",
					"type": "constructor"
				},
				{
					"inputs": [],
					"name": "getBalance",
					"outputs": [
						{
							"internalType": "uint256",
							"name": "",
							"type": "uint256"
						}
					],
					"stateMutability": "view",
					"type": "function"
				},
				{
					"inputs": [],
					"name": "manager",
					"outputs": [
						{
							"internalType": "address",
							"name": "",
							"type": "address"
						}
					],
					"stateMutability": "view",
					"type": "function"
				},
				{
					"inputs": [
						{
							"internalType": "uint256",
							"name": "",
							"type": "uint256"
						}
					],
					"name": "players",
					"outputs": [
						{
							"internalType": "address payable",
							"name": "",
							"type": "address"
						}
					],
					"stateMutability": "view",
					"type": "function"
				},
				{
					"stateMutability": "payable",
					"type": "receive"
				}
			],
			"devdoc": {
				"kind": "dev",
				"methods": {},
				"version": 1
			},
			"evm": {
				"assembly": "    /* \"contracts/src/projects/lottery.sol\":70:474  contract Lottery{... */\n  mstore(0x40, 0x80)\n    /* \"contracts/src/projects/lottery.sol\":159:209  constructor(){... */\n  callvalue\n  dup1\n  iszero\n  tag_1\n  jumpi\n  0x00\n  dup1\n  revert\ntag_1:\n  pop\n    /* \"contracts/src/projects/lottery.sol\":192:202  msg.sender */\n  caller\n    /* \"contracts/src/projects/lottery.sol\":182:189  manager */\n  0x01\n  0x00\n    /* \"contracts/src/projects/lottery.sol\":182:202  manager = msg.sender */\n  0x0100\n  exp\n  dup2\n  sload\n  dup2\n  0xffffffffffffffffffffffffffffffffffffffff\n  mul\n  not\n  and\n  swap1\n  dup4\n  0xffffffffffffffffffffffffffffffffffffffff\n  and\n  mul\n  or\n  swap1\n  sstore\n  pop\n    /* \"contracts/src/projects/lottery.sol\":70:474  contract Lottery{... */\n  dataSize(sub_0)\n  dup1\n  dataOffset(sub_0)\n  0x00\n  codecopy\n  0x00\n  return\nstop\n\nsub_0: assembly {\n        /* \"contracts/src/projects/lottery.sol\":70:474  contract Lottery{... */\n      mstore(0x40, 0x80)\n      jumpi(tag_1, lt(calldatasize, 0x04))\n      shr(0xe0, calldataload(0x00))\n      dup1\n      0x12065fe0\n      eq\n      tag_3\n      jumpi\n      dup1\n      0x481c6a75\n      eq\n      tag_4\n      jumpi\n      dup1\n      0xf71d96cb\n      eq\n      tag_5\n      jumpi\n      jump(tag_2)\n    tag_1:\n      jumpi(tag_2, calldatasize)\n        /* \"contracts/src/projects/lottery.sol\":251:257  uint i */\n      0x00\n        /* \"contracts/src/projects/lottery.sol\":260:261  1 */\n      0x01\n        /* \"contracts/src/projects/lottery.sol\":251:261  uint i = 1 */\n      swap1\n      pop\n        /* \"contracts/src/projects/lottery.sol\":271:274  i++ */\n      dup1\n      dup1\n      tag_8\n      swap1\n      tag_9\n      jump\t// in\n    tag_8:\n      swap2\n      pop\n      pop\n        /* \"contracts/src/projects/lottery.sol\":305:314  0.1 ether */\n      0x016345785d8a0000\n        /* \"contracts/src/projects/lottery.sol\":292:301  msg.value */\n      callvalue\n        /* \"contracts/src/projects/lottery.sol\":292:314  msg.value == 0.1 ether */\n      eq\n        /* \"contracts/src/projects/lottery.sol\":284:315  require(msg.value == 0.1 ether) */\n      tag_10\n      jumpi\n      0x00\n      dup1\n      revert\n    tag_10:\n        /* \"contracts/src/projects/lottery.sol\":325:332  players */\n      0x00\n        /* \"contracts/src/projects/lottery.sol\":346:356  msg.sender */\n      caller\n        /* \"contracts/src/projects/lottery.sol\":325:358  players.push(payable(msg.sender)) */\n      swap1\n      dup1\n      0x01\n      dup2\n      sload\n      add\n      dup1\n      dup3\n      sstore\n      dup1\n      swap2\n      pop\n      pop\n      0x01\n      swap1\n      sub\n      swap1\n      0x00\n      mstore\n      keccak256(0x00, 0x20)\n      add\n      0x00\n      swap1\n      swap2\n      swap1\n      swap2\n      swap1\n      swap2\n      0x0100\n      exp\n      dup2\n      sload\n      dup2\n      0xffffffffffffffffffffffffffffffffffffffff\n      mul\n      not\n      and\n      swap1\n      dup4\n      0xffffffffffffffffffffffffffffffffffffffff\n      and\n      mul\n      or\n      swap1\n      sstore\n      pop\n        /* \"contracts/src/projects/lottery.sol\":215:373  receive() external payable{... */\n      pop\n        /* \"contracts/src/projects/lottery.sol\":70:474  contract Lottery{... */\n      stop\n    tag_2:\n      0x00\n      dup1\n      revert\n        /* \"contracts/src/projects/lottery.sol\":379:471  function getBalance() public view returns(uint){... */\n    tag_3:\n      callvalue\n      dup1\n      iszero\n      tag_12\n      jumpi\n      0x00\n      dup1\n      revert\n    tag_12:\n      pop\n      tag_13\n      tag_14\n      jump\t// in\n    tag_13:\n      mload(0x40)\n      tag_15\n      swap2\n      swap1\n      tag_16\n      jump\t// in\n    tag_15:\n      mload(0x40)\n      dup1\n      swap2\n      sub\n      swap1\n      return\n        /* \"contracts/src/projects/lottery.sol\":130:152  address public manager */\n    tag_4:\n      callvalue\n      dup1\n      iszero\n      tag_17\n      jumpi\n      0x00\n      dup1\n      revert\n    tag_17:\n      pop\n      tag_18\n      tag_19\n      jump\t// in\n    tag_18:\n      mload(0x40)\n      tag_20\n      swap2\n      swap1\n      tag_21\n      jump\t// in\n    tag_20:\n      mload(0x40)\n      dup1\n      swap2\n      sub\n      swap1\n      return\n        /* \"contracts/src/projects/lottery.sol\":92:124  address payable[] public players */\n    tag_5:\n      callvalue\n      dup1\n      iszero\n      tag_22\n      jumpi\n      0x00\n      dup1\n      revert\n    tag_22:\n      pop\n      tag_23\n      0x04\n      dup1\n      calldatasize\n      sub\n      dup2\n      add\n      swap1\n      tag_24\n      swap2\n      swap1\n      tag_25\n      jump\t// in\n    tag_24:\n      tag_26\n      jump\t// in\n    tag_23:\n      mload(0x40)\n      tag_27\n      swap2\n      swap1\n      tag_28\n      jump\t// in\n    tag_27:\n      mload(0x40)\n      dup1\n      swap2\n      sub\n      swap1\n      return\n        /* \"contracts/src/projects/lottery.sol\":379:471  function getBalance() public view returns(uint){... */\n    tag_14:\n        /* \"contracts/src/projects/lottery.sol\":421:425  uint */\n      0x00\n        /* \"contracts/src/projects/lottery.sol\":443:464  address(this).balance */\n      selfbalance\n        /* \"contracts/src/projects/lottery.sol\":436:464  return address(this).balance */\n      swap1\n      pop\n        /* \"contracts/src/projects/lottery.sol\":379:471  function getBalance() public view returns(uint){... */\n      swap1\n      jump\t// out\n        /* \"contracts/src/projects/lottery.sol\":130:152  address public manager */\n    tag_19:\n      0x01\n      0x00\n      swap1\n      sload\n      swap1\n      0x0100\n      exp\n      swap1\n      div\n      0xffffffffffffffffffffffffffffffffffffffff\n      and\n      dup2\n      jump\t// out\n        /* \"contracts/src/projects/lottery.sol\":92:124  address payable[] public players */\n    tag_26:\n      0x00\n      dup2\n      dup2\n      sload\n      dup2\n      lt\n      tag_30\n      jumpi\n      0x00\n      dup1\n      revert\n    tag_30:\n      swap1\n      0x00\n      mstore\n      keccak256(0x00, 0x20)\n      add\n      0x00\n      swap2\n      pop\n      sload\n      swap1\n      0x0100\n      exp\n      swap1\n      div\n      0xffffffffffffffffffffffffffffffffffffffff\n      and\n      dup2\n      jump\t// out\n        /* \"#utility.yul\":7:146   */\n    tag_33:\n      0x00\n        /* \"#utility.yul\":91:97   */\n      dup2\n        /* \"#utility.yul\":78:98   */\n      calldataload\n        /* \"#utility.yul\":69:98   */\n      swap1\n      pop\n        /* \"#utility.yul\":107:140   */\n      tag_35\n        /* \"#utility.yul\":134:139   */\n      dup2\n        /* \"#utility.yul\":107:140   */\n      tag_36\n      jump\t// in\n    tag_35:\n        /* \"#utility.yul\":59:146   */\n      swap3\n      swap2\n      pop\n      pop\n      jump\t// out\n        /* \"#utility.yul\":152:414   */\n    tag_25:\n      0x00\n        /* \"#utility.yul\":260:262   */\n      0x20\n        /* \"#utility.yul\":248:257   */\n      dup3\n        /* \"#utility.yul\":239:246   */\n      dup5\n        /* \"#utility.yul\":235:258   */\n      sub\n        /* \"#utility.yul\":231:263   */\n      slt\n        /* \"#utility.yul\":228:230   */\n      iszero\n      tag_38\n      jumpi\n        /* \"#utility.yul\":276:277   */\n      0x00\n        /* \"#utility.yul\":273:274   */\n      dup1\n        /* \"#utility.yul\":266:278   */\n      revert\n        /* \"#utility.yul\":228:230   */\n    tag_38:\n        /* \"#utility.yul\":319:320   */\n      0x00\n        /* \"#utility.yul\":344:397   */\n      tag_39\n        /* \"#utility.yul\":389:396   */\n      dup5\n        /* \"#utility.yul\":380:386   */\n      dup3\n        /* \"#utility.yul\":369:378   */\n      dup6\n        /* \"#utility.yul\":365:387   */\n      add\n        /* \"#utility.yul\":344:397   */\n      tag_33\n      jump\t// in\n    tag_39:\n        /* \"#utility.yul\":334:397   */\n      swap2\n      pop\n        /* \"#utility.yul\":290:407   */\n      pop\n        /* \"#utility.yul\":218:414   */\n      swap3\n      swap2\n      pop\n      pop\n      jump\t// out\n        /* \"#utility.yul\":420:562   */\n    tag_40:\n        /* \"#utility.yul\":523:555   */\n      tag_42\n        /* \"#utility.yul\":549:554   */\n      dup2\n        /* \"#utility.yul\":523:555   */\n      tag_43\n      jump\t// in\n    tag_42:\n        /* \"#utility.yul\":518:521   */\n      dup3\n        /* \"#utility.yul\":511:556   */\n      mstore\n        /* \"#utility.yul\":501:562   */\n      pop\n      pop\n      jump\t// out\n        /* \"#utility.yul\":568:686   */\n    tag_44:\n        /* \"#utility.yul\":655:679   */\n      tag_46\n        /* \"#utility.yul\":673:678   */\n      dup2\n        /* \"#utility.yul\":655:679   */\n      tag_47\n      jump\t// in\n    tag_46:\n        /* \"#utility.yul\":650:653   */\n      dup3\n        /* \"#utility.yul\":643:680   */\n      mstore\n        /* \"#utility.yul\":633:686   */\n      pop\n      pop\n      jump\t// out\n        /* \"#utility.yul\":692:810   */\n    tag_48:\n        /* \"#utility.yul\":779:803   */\n      tag_50\n        /* \"#utility.yul\":797:802   */\n      dup2\n        /* \"#utility.yul\":779:803   */\n      tag_51\n      jump\t// in\n    tag_50:\n        /* \"#utility.yul\":774:777   */\n      dup3\n        /* \"#utility.yul\":767:804   */\n      mstore\n        /* \"#utility.yul\":757:810   */\n      pop\n      pop\n      jump\t// out\n        /* \"#utility.yul\":816:1038   */\n    tag_21:\n      0x00\n        /* \"#utility.yul\":947:949   */\n      0x20\n        /* \"#utility.yul\":936:945   */\n      dup3\n        /* \"#utility.yul\":932:950   */\n      add\n        /* \"#utility.yul\":924:950   */\n      swap1\n      pop\n        /* \"#utility.yul\":960:1031   */\n      tag_53\n        /* \"#utility.yul\":1028:1029   */\n      0x00\n        /* \"#utility.yul\":1017:1026   */\n      dup4\n        /* \"#utility.yul\":1013:1030   */\n      add\n        /* \"#utility.yul\":1004:1010   */\n      dup5\n        /* \"#utility.yul\":960:1031   */\n      tag_44\n      jump\t// in\n    tag_53:\n        /* \"#utility.yul\":914:1038   */\n      swap3\n      swap2\n      pop\n      pop\n      jump\t// out\n        /* \"#utility.yul\":1044:1298   */\n    tag_28:\n      0x00\n        /* \"#utility.yul\":1191:1193   */\n      0x20\n        /* \"#utility.yul\":1180:1189   */\n      dup3\n        /* \"#utility.yul\":1176:1194   */\n      add\n        /* \"#utility.yul\":1168:1194   */\n      swap1\n      pop\n        /* \"#utility.yul\":1204:1291   */\n      tag_55\n        /* \"#utility.yul\":1288:1289   */\n      0x00\n        /* \"#utility.yul\":1277:1286   */\n      dup4\n        /* \"#utility.yul\":1273:1290   */\n      add\n        /* \"#utility.yul\":1264:1270   */\n      dup5\n        /* \"#utility.yul\":1204:1291   */\n      tag_40\n      jump\t// in\n    tag_55:\n        /* \"#utility.yul\":1158:1298   */\n      swap3\n      swap2\n      pop\n      pop\n      jump\t// out\n        /* \"#utility.yul\":1304:1526   */\n    tag_16:\n      0x00\n        /* \"#utility.yul\":1435:1437   */\n      0x20\n        /* \"#utility.yul\":1424:1433   */\n      dup3\n        /* \"#utility.yul\":1420:1438   */\n      add\n        /* \"#utility.yul\":1412:1438   */\n      swap1\n      pop\n        /* \"#utility.yul\":1448:1519   */\n      tag_57\n        /* \"#utility.yul\":1516:1517   */\n      0x00\n        /* \"#utility.yul\":1505:1514   */\n      dup4\n        /* \"#utility.yul\":1501:1518   */\n      add\n        /* \"#utility.yul\":1492:1498   */\n      dup5\n        /* \"#utility.yul\":1448:1519   */\n      tag_48\n      jump\t// in\n    tag_57:\n        /* \"#utility.yul\":1402:1526   */\n      swap3\n      swap2\n      pop\n      pop\n      jump\t// out\n        /* \"#utility.yul\":1532:1628   */\n    tag_47:\n      0x00\n        /* \"#utility.yul\":1598:1622   */\n      tag_59\n        /* \"#utility.yul\":1616:1621   */\n      dup3\n        /* \"#utility.yul\":1598:1622   */\n      tag_60\n      jump\t// in\n    tag_59:\n        /* \"#utility.yul\":1587:1622   */\n      swap1\n      pop\n        /* \"#utility.yul\":1577:1628   */\n      swap2\n      swap1\n      pop\n      jump\t// out\n        /* \"#utility.yul\":1634:1738   */\n    tag_43:\n      0x00\n        /* \"#utility.yul\":1708:1732   */\n      tag_62\n        /* \"#utility.yul\":1726:1731   */\n      dup3\n        /* \"#utility.yul\":1708:1732   */\n      tag_60\n      jump\t// in\n    tag_62:\n        /* \"#utility.yul\":1697:1732   */\n      swap1\n      pop\n        /* \"#utility.yul\":1687:1738   */\n      swap2\n      swap1\n      pop\n      jump\t// out\n        /* \"#utility.yul\":1744:1870   */\n    tag_60:\n      0x00\n        /* \"#utility.yul\":1821:1863   */\n      0xffffffffffffffffffffffffffffffffffffffff\n        /* \"#utility.yul\":1814:1819   */\n      dup3\n        /* \"#utility.yul\":1810:1864   */\n      and\n        /* \"#utility.yul\":1799:1864   */\n      swap1\n      pop\n        /* \"#utility.yul\":1789:1870   */\n      swap2\n      swap1\n      pop\n      jump\t// out\n        /* \"#utility.yul\":1876:1953   */\n    tag_51:\n      0x00\n        /* \"#utility.yul\":1942:1947   */\n      dup2\n        /* \"#utility.yul\":1931:1947   */\n      swap1\n      pop\n        /* \"#utility.yul\":1921:1953   */\n      swap2\n      swap1\n      pop\n      jump\t// out\n        /* \"#utility.yul\":1959:2192   */\n    tag_9:\n      0x00\n        /* \"#utility.yul\":2021:2045   */\n      tag_66\n        /* \"#utility.yul\":2039:2044   */\n      dup3\n        /* \"#utility.yul\":2021:2045   */\n      tag_51\n      jump\t// in\n    tag_66:\n        /* \"#utility.yul\":2012:2045   */\n      swap2\n      pop\n        /* \"#utility.yul\":2067:2133   */\n      0xffffffffffffffffffffffffffffffffffffffffffffffffffffffffffffffff\n        /* \"#utility.yul\":2060:2065   */\n      dup3\n        /* \"#utility.yul\":2057:2134   */\n      eq\n        /* \"#utility.yul\":2054:2056   */\n      iszero\n      tag_67\n      jumpi\n        /* \"#utility.yul\":2137:2155   */\n      tag_68\n      tag_69\n      jump\t// in\n    tag_68:\n        /* \"#utility.yul\":2054:2056   */\n    tag_67:\n        /* \"#utility.yul\":2184:2185   */\n      0x01\n        /* \"#utility.yul\":2177:2182   */\n      dup3\n        /* \"#utility.yul\":2173:2186   */\n      add\n        /* \"#utility.yul\":2166:2186   */\n      swap1\n      pop\n        /* \"#utility.yul\":2002:2192   */\n      swap2\n      swap1\n      pop\n      jump\t// out\n        /* \"#utility.yul\":2198:2378   */\n    tag_69:\n        /* \"#utility.yul\":2246:2323   */\n      0x4e487b7100000000000000000000000000000000000000000000000000000000\n        /* \"#utility.yul\":2243:2244   */\n      0x00\n        /* \"#utility.yul\":2236:2324   */\n      mstore\n        /* \"#utility.yul\":2343:2347   */\n      0x11\n        /* \"#utility.yul\":2340:2341   */\n      0x04\n        /* \"#utility.yul\":2333:2348   */\n      mstore\n        /* \"#utility.yul\":2367:2371   */\n      0x24\n        /* \"#utility.yul\":2364:2365   */\n      0x00\n        /* \"#utility.yul\":2357:2372   */\n      revert\n        /* \"#utility.yul\":2384:2506   */\n    tag_36:\n        /* \"#utility.yul\":2457:2481   */\n      tag_72\n        /* \"#utility.yul\":2475:2480   */\n      dup2\n        /* \"#utility.yul\":2457:2481   */\n      tag_51\n      jump\t// in\n    tag_72:\n        /* \"#utility.yul\":2450:2455   */\n      dup2\n        /* \"#utility.yul\":2447:2482   */\n      eq\n        /* \"#utility.yul\":2437:2439   */\n      tag_73\n      jumpi\n        /* \"#utility.yul\":2496:2497   */\n      0x00\n        /* \"#utility.yul\":2493:2494   */\n      dup1\n        /* \"#utility.yul\":2486:2498   */\n      revert\n        /* \"#utility.yul\":2437:2439   */\n    tag_73:\n        /* \"#utility.yul\":2427:2506   */\n      pop\n      jump\t// out\n\n    auxdata: 0xa26469706673582212208de1c8be889f939c1e4b3f541336c6965bec89b82e9a2bd52e2b7dea71cc752964736f6c63430008000033\n}\n",
				"bytecode": {
					"linkReferences": {},
					"object": "608060405234801561001057600080fd5b5033600160006101000a81548173ffffffffffffffffffffffffffffffffffffffff021916908373ffffffffffffffffffffffffffffffffffffffff16021790555061039f806100616000396000f3fe6080604052600436106100385760003560e01c806312065fe0146100d0578063481c6a75146100fb578063f71d96cb14610126576100cb565b366100cb57600060019050808061004e906102da565b91505067016345785d8a0000341461006557600080fd5b6000339080600181540180825580915050600190039060005260206000200160009091909190916101000a81548173ffffffffffffffffffffffffffffffffffffffff021916908373ffffffffffffffffffffffffffffffffffffffff16021790555050005b600080fd5b3480156100dc57600080fd5b506100e5610163565b6040516100f29190610271565b60405180910390f35b34801561010757600080fd5b5061011061016b565b60405161011d919061023b565b60405180910390f35b34801561013257600080fd5b5061014d600480360381019061014891906101e5565b610191565b60405161015a9190610256565b60405180910390f35b600047905090565b600160009054906101000a900473ffffffffffffffffffffffffffffffffffffffff1681565b600081815481106101a157600080fd5b906000526020600020016000915054906101000a900473ffffffffffffffffffffffffffffffffffffffff1681565b6000813590506101df81610352565b92915050565b6000602082840312156101f757600080fd5b6000610205848285016101d0565b91505092915050565b6102178161029e565b82525050565b6102268161028c565b82525050565b610235816102d0565b82525050565b6000602082019050610250600083018461021d565b92915050565b600060208201905061026b600083018461020e565b92915050565b6000602082019050610286600083018461022c565b92915050565b6000610297826102b0565b9050919050565b60006102a9826102b0565b9050919050565b600073ffffffffffffffffffffffffffffffffffffffff82169050919050565b6000819050919050565b60006102e5826102d0565b91507fffffffffffffffffffffffffffffffffffffffffffffffffffffffffffffffff82141561031857610317610323565b5b600182019050919050565b7f4e487b7100000000000000000000000000000000000000000000000000000000600052601160045260246000fd5b61035b816102d0565b811461036657600080fd5b5056fea26469706673582212208de1c8be889f939c1e4b3f541336c6965bec89b82e9a2bd52e2b7dea71cc752964736f6c63430008000033",
					"opcodes": "PUSH1 0x80 PUSH1 0x40 MSTORE CALLVALUE DUP1 ISZERO PUSH2 0x10 JUMPI PUSH1 0x0 DUP1 REVERT JUMPDEST POP CALLER PUSH1 0x1 PUSH1 0x0 PUSH2 0x100 EXP DUP2 SLOAD DUP2 PUSH20 0xFFFFFFFFFFFFFFFFFFFFFFFFFFFFFFFFFFFFFFFF MUL NOT AND SWAP1 DUP4 PUSH20 0xFFFFFFFFFFFFFFFFFFFFFFFFFFFFFFFFFFFFFFFF AND MUL OR SWAP1 SSTORE POP PUSH2 0x39F DUP1 PUSH2 0x61 PUSH1 0x0 CODECOPY PUSH1 0x0 RETURN INVALID PUSH1 0x80 PUSH1 0x40 MSTORE PUSH1 0x4 CALLDATASIZE LT PUSH2 0x38 JUMPI PUSH1 0x0 CALLDATALOAD PUSH1 0xE0 SHR DUP1 PUSH4 0x12065FE0 EQ PUSH2 0xD0 JUMPI DUP1 PUSH4 0x481C6A75 EQ PUSH2 0xFB JUMPI DUP1 PUSH4 0xF71D96CB EQ PUSH2 0x126 JUMPI PUSH2 0xCB JUMP JUMPDEST CALLDATASIZE PUSH2 0xCB JUMPI PUSH1 0x0 PUSH1 0x1 SWAP1 POP DUP1 DUP1 PUSH2 0x4E SWAP1 PUSH2 0x2DA JUMP JUMPDEST SWAP2 POP POP PUSH8 0x16345785D8A0000 CALLVALUE EQ PUSH2 0x65 JUMPI PUSH1 0x0 DUP1 REVERT JUMPDEST PUSH1 0x0 CALLER SWAP1 DUP1 PUSH1 0x1 DUP2 SLOAD ADD DUP1 DUP3 SSTORE DUP1 SWAP2 POP POP PUSH1 0x1 SWAP1 SUB SWAP1 PUSH1 0x0 MSTORE PUSH1 0x20 PUSH1 0x0 KECCAK256 ADD PUSH1 0x0 SWAP1 SWAP2 SWAP1 SWAP2 SWAP1 SWAP2 PUSH2 0x100 EXP DUP2 SLOAD DUP2 PUSH20 0xFFFFFFFFFFFFFFFFFFFFFFFFFFFFFFFFFFFFFFFF MUL NOT AND SWAP1 DUP4 PUSH20 0xFFFFFFFFFFFFFFFFFFFFFFFFFFFFFFFFFFFFFFFF AND MUL OR SWAP1 SSTORE POP POP STOP JUMPDEST PUSH1 0x0 DUP1 REVERT JUMPDEST CALLVALUE DUP1 ISZERO PUSH2 0xDC JUMPI PUSH1 0x0 DUP1 REVERT JUMPDEST POP PUSH2 0xE5 PUSH2 0x163 JUMP JUMPDEST PUSH1 0x40 MLOAD PUSH2 0xF2 SWAP2 SWAP1 PUSH2 0x271 JUMP JUMPDEST PUSH1 0x40 MLOAD DUP1 SWAP2 SUB SWAP1 RETURN JUMPDEST CALLVALUE DUP1 ISZERO PUSH2 0x107 JUMPI PUSH1 0x0 DUP1 REVERT JUMPDEST POP PUSH2 0x110 PUSH2 0x16B JUMP JUMPDEST PUSH1 0x40 MLOAD PUSH2 0x11D SWAP2 SWAP1 PUSH2 0x23B JUMP JUMPDEST PUSH1 0x40 MLOAD DUP1 SWAP2 SUB SWAP1 RETURN JUMPDEST CALLVALUE DUP1 ISZERO PUSH2 0x132 JUMPI PUSH1 0x0 DUP1 REVERT JUMPDEST POP PUSH2 0x14D PUSH1 0x4 DUP1 CALLDATASIZE SUB DUP2 ADD SWAP1 PUSH2 0x148 SWAP2 SWAP1 PUSH2 0x1E5 JUMP JUMPDEST PUSH2 0x191 JUMP JUMPDEST PUSH1 0x40 MLOAD PUSH2 0x15A SWAP2 SWAP1 PUSH2 0x256 JUMP JUMPDEST PUSH1 0x40 MLOAD DUP1 SWAP2 SUB SWAP1 RETURN JUMPDEST PUSH1 0x0 SELFBALANCE SWAP1 POP SWAP1 JUMP JUMPDEST PUSH1 0x1 PUSH1 0x0 SWAP1 SLOAD SWAP1 PUSH2 0x100 EXP SWAP1 DIV PUSH20 0xFFFFFFFFFFFFFFFFFFFFFFFFFFFFFFFFFFFFFFFF AND DUP2 JUMP JUMPDEST PUSH1 0x0 DUP2 DUP2 SLOAD DUP2 LT PUSH2 0x1A1 JUMPI PUSH1 0x0 DUP1 REVERT JUMPDEST SWAP1 PUSH1 0x0 MSTORE PUSH1 0x20 PUSH1 0x0 KECCAK256 ADD PUSH1 0x0 SWAP2 POP SLOAD SWAP1 PUSH2 0x100 EXP SWAP1 DIV PUSH20 0xFFFFFFFFFFFFFFFFFFFFFFFFFFFFFFFFFFFFFFFF AND DUP2 JUMP JUMPDEST PUSH1 0x0 DUP2 CALLDATALOAD SWAP1 POP PUSH2 0x1DF DUP2 PUSH2 0x352 JUMP JUMPDEST SWAP3 SWAP2 POP POP JUMP JUMPDEST PUSH1 0x0 PUSH1 0x20 DUP3 DUP5 SUB SLT ISZERO PUSH2 0x1F7 JUMPI PUSH1 0x0 DUP1 REVERT JUMPDEST PUSH1 0x0 PUSH2 0x205 DUP5 DUP3 DUP6 ADD PUSH2 0x1D0 JUMP JUMPDEST SWAP2 POP POP SWAP3 SWAP2 POP POP JUMP JUMPDEST PUSH2 0x217 DUP2 PUSH2 0x29E JUMP JUMPDEST DUP3 MSTORE POP POP JUMP JUMPDEST PUSH2 0x226 DUP2 PUSH2 0x28C JUMP JUMPDEST DUP3 MSTORE POP POP JUMP JUMPDEST PUSH2 0x235 DUP2 PUSH2 0x2D0 JUMP JUMPDEST DUP3 MSTORE POP POP JUMP JUMPDEST PUSH1 0x0 PUSH1 0x20 DUP3 ADD SWAP1 POP PUSH2 0x250 PUSH1 0x0 DUP4 ADD DUP5 PUSH2 0x21D JUMP JUMPDEST SWAP3 SWAP2 POP POP JUMP JUMPDEST PUSH1 0x0 PUSH1 0x20 DUP3 ADD SWAP1 POP PUSH2 0x26B PUSH1 0x0 DUP4 ADD DUP5 PUSH2 0x20E JUMP JUMPDEST SWAP3 SWAP2 POP POP JUMP JUMPDEST PUSH1 0x0 PUSH1 0x20 DUP3 ADD SWAP1 POP PUSH2 0x286 PUSH1 0x0 DUP4 ADD DUP5 PUSH2 0x22C JUMP JUMPDEST SWAP3 SWAP2 POP POP JUMP JUMPDEST PUSH1 0x0 PUSH2 0x297 DUP3 PUSH2 0x2B0 JUMP JUMPDEST SWAP1 POP SWAP2 SWAP1 POP JUMP JUMPDEST PUSH1 0x0 PUSH2 0x2A9 DUP3 PUSH2 0x2B0 JUMP JUMPDEST SWAP1 POP SWAP2 SWAP1 POP JUMP JUMPDEST PUSH1 0x0 PUSH20 0xFFFFFFFFFFFFFFFFFFFFFFFFFFFFFFFFFFFFFFFF DUP3 AND SWAP1 POP SWAP2 SWAP1 POP JUMP JUMPDEST PUSH1 0x0 DUP2 SWAP1 POP SWAP2 SWAP1 POP JUMP JUMPDEST PUSH1 0x0 PUSH2 0x2E5 DUP3 PUSH2 0x2D0 JUMP JUMPDEST SWAP2 POP PUSH32 0xFFFFFFFFFFFFFFFFFFFFFFFFFFFFFFFFFFFFFFFFFFFFFFFFFFFFFFFFFFFFFFFF DUP3 EQ ISZERO PUSH2 0x318 JUMPI PUSH2 0x317 PUSH2 0x323 JUMP JUMPDEST JUMPDEST PUSH1 0x1 DUP3 ADD SWAP1 POP SWAP2 SWAP1 POP JUMP JUMPDEST PUSH32 0x4E487B7100000000000000000000000000000000000000000000000000000000 PUSH1 0x0 MSTORE PUSH1 0x11 PUSH1 0x4 MSTORE PUSH1 0x24 PUSH1 0x0 REVERT JUMPDEST PUSH2 0x35B DUP2 PUSH2 0x2D0 JUMP JUMPDEST DUP2 EQ PUSH2 0x366 JUMPI PUSH1 0x0 DUP1 REVERT JUMPDEST POP JUMP INVALID LOG2 PUSH5 0x6970667358 0x22 SLT KECCAK256 DUP14 0xE1 0xC8 0xBE DUP9 SWAP16 SWAP4 SWAP13 0x1E 0x4B EXTCODEHASH SLOAD SGT CALLDATASIZE 0xC6 SWAP7 JUMPDEST 0xEC DUP10 0xB8 0x2E SWAP11 0x2B 0xD5 0x2E 0x2B PUSH30 0xEA71CC752964736F6C634300080000330000000000000000000000000000 "
				},
				"gasEstimates": {
					"creation": {
						"codeDepositCost": "185400",
						"executionCost": "21092",
						"totalCost": "206492"
					},
					"external": {
						"getBalance()": "317",
						"manager()": "1214",
						"players(uint256)": "2378"
					}
				},
				"methodIdentifiers": {
					"getBalance()": "12065fe0",
					"manager()": "481c6a75",
					"players(uint256)": "f71d96cb"
				}
			},
			"storageLayout": {
				"storage": [
					{
						"astId": 4,
						"contract": "contracts/src/projects/lottery.sol:Lottery",
						"label": "players",
						"offset": 0,
						"slot": "0",
						"type": "t_array(t_address_payable)dyn_storage"
					},
					{
						"astId": 6,
						"contract": "contracts/src/projects/lottery.sol:Lottery",
						"label": "manager",
						"offset": 0,
						"slot": "1",
						"type": "t_address"
					}
				],
				"types": {
					"t_address": {
						"encoding": "inplace",
						"label": "address",
						"numberOfBytes": "20"
					},
					"t_address_payable": {
						"encoding": "inplace",
						"label": "address payable",
						"numberOfBytes": "20"
					},
					"t_array(t_address_payable)dyn_storage": {
						"base": "t_address_payable",
						"encoding": "dynamic_array",
						"label": "address payable[]",
						"numberOfBytes": "32"
					}
				}
			},
			"userdoc": {
				"kind": "user",
				"methods": {},
				"version": 1
			}
		}
	}
}